:020000040800F2
:1000000000140020E1000008DD000008DB0000080B
:1000100000000000000000000000000000000000E0
:10002000000000000000000000000000DD000008EB
:100030000000000000000000DD000008DD000008F6
:10004000DB000008DB000008DB000008DB00000824
:10005000DB000008DB000008DB000008DB00000814
:10006000DB000008DB000008DB000008DB00000804
:10007000DB000008DB000008DB000008DB000008F4
:10008000DB000008DB000008DB000008DB000008E4
:10009000DB000008DB000008DB000008DB000008D4
:1000A000DB000008DB000008DB000008DB000008C4
:1000B000DB000008DB000008DB000008DB000008B4
:1000C00010B5024B1B68984710BDC0468C13000842
:1000D00010B5FFF7F5FF002010BDFEE770470000E8
:1000E00010B5164B164A17498B4218D30021164AF1
:1000F000934217D38023154A9B001168144C0B437D
:100100001360144B9C420FD3134C144B9C420ED3E0
:10011000FFF7DEFF124C134B9C420BD310BD01CAFC
:1001200001C3E1E702C3E3E708CC9847E9E708CC5D
:100130009847EAE708CC9847EDE7C0460000002062
:1001400068010008000000200000002014ED00E01D
:1001500068010008680100086801000868010008DB
:080160006801000868010008B5
:04000005080000E10E
:00000001FF
