:020000040800F2
:1000000000500020E1000008DD000008DB000008CF
:1000100000000000000000000000000000000000E0
:10002000000000000000000000000000DD000008EB
:100030000000000000000000DD000008DD000008F6
:10004000DB000008DB000008DB000008DB00000824
:10005000DB000008DB000008DB000008DB00000814
:10006000DB000008DB000008DB000008DB00000804
:10007000DB000008DB000008DB000008DB000008F4
:10008000DB000008DB000008DB000008DB000008E4
:10009000DB000008DB000008DB000008DB000008D4
:1000A000DB000008DB000008DB000008DB000008C4
:1000B000DB000008DB000008DB000008DB000008B4
:1000C00010B5024B1B68984710BDC046048000085D
:1000D00010B5FFF7F5FF002010BDFEE770470000E8
:1000E00010B5164B164A17498B4218D30021164AF1
:1000F000934217D38023154A9B001168144C0B437D
:100100001360144B9C420FD3134C144B9C420ED3E0
:10011000FFF7DEFF124C134B9C420BD310BD01CAFC
:1001200001C3E1E702C3E3E708CC9847E9E708CC5D
:100130009847EAE708CC9847EDE7C0460000002062
:1001400068010008000000200000002014ED00E01D
:1001500068010008680100086801000868010008DB
:100160006801000868010008FFFFFFFFFFFFFFFFB5
:10017000FFFFFFFFFFFFFFFFFFFFFFFFFFFFFFFF8F
:10018000FFFFFFFFFFFFFFFFFFFFFFFFFFFFFFFF7F
:10019000FFFFFFFFFFFFFFFFFFFFFFFFFFFFFFFF6F
:1001A000FFFFFFFFFFFFFFFFFFFFFFFFFFFFFFFF5F
:107D00000050002005A0000803A0000801A0000802
:107D10000000000000000000000000000000000063
:107D200000000000000000000000000003A00008A8
:107D3000000000000000000003A00008417E0008D1
:107D400001A0000801A0000801A0000801A000088F
:107D500001A0000801A0000801A0000801A000087F
:107D600001A0000801A0000801A0000801A000086F
:107D700001A0000801A0000801A0000801A000085F
:107D800001A0000801A0000801A0000801A000084F
:107D900001A0000801A0000801A0000801A000083F
:107DA00001A0000801A0000801A0000801A000082F
:107DB00001A0000801A0000801A0000801A000081F
:107DC000D0B500F065F81B4801F01CFC0823002228
:107DD0000221194801F0D0F808220221164801F0CA
:107DE00005F900F05BF800F037F8060000200F00FE
:107DF000002400F07BF800F02FF8801BB941002927
:107E000001D10928F7D90D49201C00F0B3F800284A
:107E10000DD1FE21201C890500F0CEF8041C201C89
:107E200000F064F800F018F806000F00E3E7002403
:107E3000F5E7C04681050000000400500000C6427E
:107E400030B50025012403490A684B6812196B41BB
:107E50000CC130BD10000020014B03CB7047C04661
:107E60001000002010B5024801F066FB10BDC046AE
:107E7000C8A30008FA2010B50449800002F028F9D0
:107E800002F048F902F036F910BDC0460048E8019A
:107E900010B5FFF7E7FFFFF7EDFF10BDE02010B5CD
:107EA000C00001F0AFFB002380201A001900C005BC
:107EB00001F042FC802006220221C00501F022FED2
:107EC0008020C00501F08DFC80200221C00501F05A
:107ED000B6FE80201F21C00501F0CBFC80200249A6
:107EE000C00501F0CAFC10BDE703000010B507494A
:107EF00000F08EFA064900F06DFC00F045F8020033
:107F000080200221C00501F025FF10BD0000C842FD
:107F100000007A44844608006146FFE71FB500F080
:107F200009FC002801D40021C8421FBD10B500F093
:107F300085FB4042013010BD10B500F0FBFB00286E
:107F400001DB002010BD012010BDC04610B500F0BF
:107F5000F1FB002801DD002010BD012010BDC0464E
:107F600010B500F097FB002801DC002010BD0120B7
:107F700010BDC04610B500F08DFB002801DA0020CE
:107F800010BD012010BDC0469E2110B5C905041CBE
:107F9000FFF7F0FF002803D1201C00F0AFFF10BD59
:107FA0009E21201CC90500F05FFD00F0A7FF802383
:107FB0001B06C018F3E7C046F0B5C64647027B0A69
:107FC0009C464B025A0A904645004A002D0E120E5E
:107FD000CE0F00B59909C40FBF09AB1AB4424BD0FC
:107FE000002B39DD002A00D177E0FF2D00D1C1E060
:107FF0008022D20411431B2B00DCFFE0013F7A01F9
:1080000000D4B1E001277F42BF01BA091600100079
:1080100000F094FF330005388340854200DCD5E052
:10802000B94F2D1A1F405A0700D178E10F22134093
:10803000042B00D173E104377B0100D46FE1681C8D
:10804000FE2D00D07DE0FF200022C0051043E40794
:10805000204380BCB846F0BD002B46D0531B002DFA
:1080600073D1002F00D139E1012B00D17EE1FF2B2C
:1080700000D156E1013B6EE0002B00DC85E0002AD8
:1080800051D1002972D05A1E012B00D12CE1FF2BB7
:1080900070D01B2A4CDC130008002022D840D31AD1
:1080A00099400B005A1E93410343FF188023DB04C1
:1080B0001F4200D12CE10135FF2DC4D0934A79082D
:1080C0001140012217400F437A0700D08DE01F4274
:1080D000B5D1FB089C462B002EE0002946D0012B91
:1080E00067D0FF2B46D0013B85E7FE206A1C10427B
:1080F00000D099E0002D00D0E6E0002F00D12FE164
:10810000002919D080257A1AED042A4200D15AE1BB
:108110003400CF1B00D18FE001202F4212D1FB0889
:108120009C46002308E0FF2D24D01B2B00DC9AE0A6
:108130000537FB089C462B0062465202520AD8B211
:1081400083E7C0B2BA01520A7FE7FF2A00D1E8E014
:108150008020C00407431B2B00DC88E04F1E340046
:108160001500790100D54DE72B000437FA08944635
:10817000FF2BE1D16346002B00D145E18022D203E1
:108180001A435202FF20520A5FE7002B57D0531BBD
:10819000002D78D1002F00D1A1E05D1E012B00D170
:1081A000A2E0FF2B00D1BDE01B2D00DDC0E02B00C5
:1081B00070E0791A4A0100D4B6E089018D092800DF
:1081C00000F0BCFE2B000538834001252022401B17
:1081D0000130121A1F009340C7405A1E93411F439B
:1081E0002AD000257B0700D108E10F233B40042B58
:1081F00000D020E77B0100D521E76AE708002022B4
:10820000D840D31A99400B005A1E93410343FF1ADA
:108210007B0100D5F8E67B0700D15AE70F233B40EE
:10822000042B00D007E754E77B1A1A005B0158D4EF
:10823000002A00D0EAE600240020002205E7FE2202
:108240006B1C1A4231D1002D77D1002F00D1A6E04E
:10825000002900D1BCE07A18530100D4BAE09201A1
:108260000120520AF1E68022D204114314E73800BB
:108270002024D840E31A9F407B1E9F4107433400CF
:108280001500CF1BC4E7FF2A4CD01B2B50DC8020ED
:10829000C004074338002025D840EB1A9F407B1EBE
:1082A0009F41074315007F1800E7FF2B00D1CAE666
:1082B0007F187F087A0700D190E00F223A40042A05
:1082C00000D18BE0043751E7002F5DD1002900D0A9
:1082D00086E080220024FF20D203B6E634000F009F
:1082E00044E73400CA1B91E67B185A0100D47EE0B3
:1082F000064F5B081F405A0758D00F221340042B2B
:1083000054D00223043731E7FFFFFFFBFFFFFF7D5F
:108310007B0704D00F233B40042B00D08BE62B00BF
:1083200024E73400C44625E7CB089C46012303E735
:108330000531CB089C461300FEE6002FF2D0002941
:1083400036D08023DB039C4502D3984500D2C44637
:1083500080226346D2031A435202FF20520A74E677
:10836000002900D167E73400C446E5E6CB1B5A017B
:1083700024D59B019C09200000F0E0FD2300053876
:1083800083403400013521E7002911D08023DB032D
:108390009C45DDD39845DBD23400C446D8E700299C
:1083A00000D149E7CB089C460023C5E6022590E6AC
:1083B00080226346D203FF201A4346E6DB089C4630
:1083C00034000123B8E6002A15D1002400203CE641
:1083D0000023B1E6D3089C460023ADE61D0078E6F5
:1083E00080224346D2033400FF201A432DE6DB08E7
:1083F0009C460123A0E6D20894469DE601207B011D
:1084000000D59EE63900CDE7FF201A001DE6C046E4
:10841000F0B54F464646D6464502C0B5C30F4700A5
:1084200099460E1C6D0A3F0E5AD0FF2F21D0802393
:10843000ED00DB041D43002398469A467F3F7402FB
:108440007300640A1B0EF60F002B1FD0FF2B42D0C7
:1084500080220020E400D20414437F3B4A46FF1AE6
:10846000434672400F2B00D99CE071499B00CB58CA
:108470009F46002D59D108239846063B74029A4620
:108480007300640A1B0EF60F002BDFD1002C3BD1CA
:1084900001234A464146724019430E2918D86548BF
:1084A000890041588F465346022B00D1B9E0032B77
:1084B0006ED04A462C00012B40D100200024C0057C
:1084C0002043D2071043E0BCBA46B146A846F0BDEF
:1084D000FF200024F3E7002C20D10223FF3FD8E740
:1084E000002D05D104239846033B00279A46A6E7B2
:1084F000280000F023FD7627431F9D4000237F4284
:1085000098469A463F1A9AE7200000F017FD431F4D
:108510009C4076235B421B1A00209FE703234246C0
:108520001A4390460320FC3398E70C239846093BF6
:10853000FF279A4683E703282CD0320038007F308B
:10854000002847DD630704D00F232340042B00D00D
:108550000434230103D53800374B80301C40FE28FB
:10856000B6DCA401640AC0B2A9E780240022FF207F
:10857000E403A4E78023DB031D4201D01C420BD09F
:108580008024E4032C4364024A46FF20640A96E7F1
:108590004E462C008023DB031C4364023200FF2084
:1085A000640A8CE76D01600185422ED21B230024F2
:1085B000013F0126290064006D00002901DB85428E
:1085C00001D32D1A3443013B002BF3D16B1E9D4187
:1085D0002C43B3E703001A3300DA6EE701232100CE
:1085E0001B1A9E37D940BC400B00611E8C412343AF
:1085F000590704D00F211940042900D00433590130
:1086000013D49B0100205C0A59E71A2301242D1A78
:10861000CFE7981E43425841404232000024C0B286
:108620004DE74A46FF20002449E70120002446E7A1
:1086300014A3000854A30008FFFFFFF730B543025E
:108640004200C50F48025B0A440A48009C46120ECD
:10865000000EC90FFF2A11D0FF280CD0012382423F
:108660000AD1A44508D18D4211D0002A04D1634615
:108670005A1E934100E00123180030BD0123FF285A
:10868000FAD162462243F7D12B004B40F4E7002396
:10869000F2E7C04643025B0A42009C46C30F480211
:1086A00010B5440A4800120E000EC90FFF2A1AD056
:1086B000FF280BD0002A24D1624600281ED1002CAE
:1086C0002ED0002A32D1480001380BE0002C2AD1EC
:1086D000002A02D16246002AF5D08B421DD001202B
:1086E0005B42184310BD6246002A1CD1FF28F6D118
:1086F000002C18D120008B42F1D1F3E7002AE2D000
:10870000EBE70028EBD08B42E9D18242E7DC04DBC7
:10871000A445E4D80020A445E4D258000138E1E79C
:10872000002ADFD0DBE702204042DBE78B42D6D1D4
:10873000EEE7C04643025B0A42009C46C30F480274
:1087400010B5440A4800120E000EC90FFF2A15D0BA
:10875000FF280BD0002A1AD1624600281DD1002C18
:1087600022D0002A32D1480001380FE0002C0CD171
:10877000002A14D16246002AF5D010E06246002A91
:1087800003D1FF2805D1002C1CD0022010BD0028E9
:108790000DD101205B421843F8E7002AE3D08B4259
:1087A000F7D158000138F1E7002AEFD0F1E78B420A
:1087B000EFD18242EDDCF4DBA445EAD80020A445E9
:1087C000E4D2EEE720008B42E3D1DFE78B42E0D139
:1087D000F2E7C046F0B54646D6464F464402C0B51D
:1087E000C30F460098460D1C640A360E00D1CBE03C
:1087F000FF2E6ED08023E400DB041C430023994647
:108800009A467F3E6F026B007F0A1B0EED0F002B16
:108810006DD0FF2B00D1A6E07F3BF6184B460A2B0C
:1088200000DD82E08023FF00DB041F4343466B40F2
:1088300098464B460022022B0FDD494601238B4010
:10884000A621C9000B4200D06FE0902189000B42A5
:1088500000D0D3E08821194264D1200C2404240CD8
:1088600021003B0C3F043F0C79435C434743584392
:10887000E4190B0C1B199F4202D980225202801866
:1088800009041A04090C52189401611E8C411B0C36
:10889000920E1B1814439B011C431B0100D5CDE015
:1088A00030007F30002800DCAEE063070BD00F23E0
:1088B00032002340042B06D00434230103D5803238
:1088C0001000684B1C40FE2866DCA3015B0AC0B2A6
:1088D0001EE0002C00D08BE008239946063B6F0277
:1088E0009A466B007F0A1B0EED0F002B91D1002FD3
:1088F00061D14A4601231A4391460A2A15DC4346B0
:108900006B4098464B460122022B96DC0020002348
:10891000C00518434346DD072843E0BCBA46B146CC
:10892000A846F0BDA8463C0092465346022B33D0E1
:10893000032B11D0012BE9D030008030721C0028AD
:1089400063DD6307B9D00F232340042BB4D1B4E710
:108950000F2A78D0A8463C008023DB0323435B0228
:10896000FF205B0AD4E7FF36002F2FD102234A46AF
:1089700013430A2BD9DC42466A4090464A46002AF5
:108980000AD09946022258E7002C08D104239946C0
:10899000033B00269A4635E7FF200023B8E7200076
:1089A00000F0CCFA7626431F9C400023764299467D
:1089B0009A46361A26E7380000F0C0FA4B46361AB7
:1089C000763E0A2BB1DC053887402FE703234A4661
:1089D0001A4313000A2ABBDC42466A409046012231
:1089E0009A40882113000322194200D135E799E704
:1089F0000C239946093BFF269A4603E70023984635
:108A00008023FF20DB0383E7320003001A3300DA00
:108A10007CE79E320123210094401B1AD940621E3C
:108A200094410C43630704D00F232340042B00D050
:108A30000434630111D50120002369E70123620892
:108A40001C40144378E78023DB031C4284D01F4280
:108A500082D1A846FF203B435AE7A30100205B0ACE
:108A600056E7C046FFFFFFF7F0B5C64647027B0A50
:108A70004A0245009C46C40F530A4800984600B578
:108A80002D0EBF09000ECE0F9209FF2800D171E014
:108A900001235E402B1AB4423CD0002B00DC9CE149
:108AA000002800D1A3E0FF2D00D18BE08021C90474
:108AB0000A431B2B00DCFBE0013F7B0100D47BE081
:108AC00001277F42BF01B9090E00080000F036FA05
:108AD000330005388340854200DCD2E0B44F2D1AC4
:108AE0001F405A0700D1F6E00F221340042B00D19B
:108AF000F1E004377B0100D4EDE0681CFE2D00D0CE
:108B000090E0FF200022C0051043E407204380BC12
:108B1000B846F0BD002B00DC77E100286FD1002AB9
:108B20004CD0591E012B00D146E1FF2B4AD01B2906
:108B30006ADC0B0011002020D940C31A9A40531E52
:108B40009A410A43BF188023DB041F4200D1BBE0D7
:108B50000135FF2DD5D0974A7908114001221740E1
:108B60000F437A0700D09AE01F42C6D1FB089C460B
:108B70002B004DE02B00FF3B002A2ED101214E405F
:108B8000B44200D1B4E0002B50D0002D00D0EAE078
:108B9000FF23002F00D1FAE0591E012B00D15CE128
:108BA000FF2B00D13DE11B2900DC22E1571E3400E0
:108BB00005007B0100D583E72B000437FA089446B3
:108BC000FF2B25D16346002B9BD080226346D20326
:108BD0001A435202FF20520A95E7B44200D1A4E0A2
:108BE000002B23D0002DD3D0C4463400EDE7002A5B
:108BF000E4D0012B39D0FF2BE4D0013B59E7FF2D06
:108C0000E0D01B2B00DCA6E00537FB089C462B00C0
:108C100062465202520AD8B275E701203A007B013F
:108C200000D43FE1C0B2BA01520A6CE7FE216B1CCE
:108C3000194252D1002D00D0ACE0002F00D11AE132
:108C4000002A00D1F4E08021BB1AC9040B4200D1F4
:108C50003CE10124D71B3440002F46D001200F42B5
:108C6000E1D1FB089C460023D2E7BF1A7A0100D469
:108C7000DAE0BD01A80900F061F9AB0905388340CD
:108C800001252022401B0130121A1F009340C740CB
:108C90005A1E93411F4328D000257B07BDD00F23C8
:108CA0003B40042B00D024E77B0100D525E75DE79E
:108CB00011002020D940C31A9A40531E9A410A43FA
:108CC000BF1A7B0100D5FDE67B0704D00F233B4094
:108CD000042B00D00DE72B0070E7BB1A19005B01D5
:108CE00062D4002900D0EFE60024002000220AE729
:108CF000002B1CD0002D00D003E7FF23002F47D00E
:108D0000591E012B58D0FF2B00D18BE01B2900DD11
:108D100090E00B0039002025D940EB1A9F407B1EC4
:108D20009F410F430500BF180DE7002B17D1FE210F
:108D30006B1C19421BD1002D00D080E0002F00D108
:108D4000AEE0002A74D0BA18530100D4AAE0920110
:108D50000120520AD7E68021C9040A43EAE6002D21
:108D6000CBD0C44631E73400FF200022CBE6FF2BF6
:108D700000D1C6E6BA185208510705D00F21171DB9
:108D80001140042900D019E7D208944640E7340086
:108D9000170013E7002F75D1002A00D09DE0802234
:108DA0000024FF20D203AEE60124D11B34408BE621
:108DB000FFFFFFFBFFFFFF7DBB185A0100D494E0CB
:108DC0004D4A5B081A40590700D192E00F210B4031
:108DD000042B6ED00223171DF0E6002B00D125E7EF
:108DE000411B0B00002D00D1D3E68023DB041F4381
:108DF000D9E63B002024CB40611A8F40791E8F4179
:108E00001F4334000500D71B5BE7002B8FD0431BAB
:108E1000002D00D172E71B2B0CDC8021C9040F430D
:108E200078E73400C446CDE6FB089C460123EFE614
:108E30000023EDE60532D3089C460300E8E6002F48
:108E4000F0D0002A37D08023DB039C4500D2BCE65B
:108E5000984500D3B9E6C446B7E6D31B5A0130D5CE
:108E60009B019C09200000F069F82300053883402D
:108E70003400012505E7002A18D001240023C44648
:108E80003440C5E6002A16D08023DB039C4500D27F
:108E90009BE6984500D398E60124C446344094E606
:108EA000002A04D0D3089C460023B1E60024002009
:108EB00029E6023B68E780226346D203FF201A437B
:108EC00021E6DB089C4634000123A1E6002B00D1FB
:108ED0000AE7DB089C4600239AE6802243460124E9
:108EE000D203FF201A4334400DE6DB089C460123E1
:108EF0008EE6022348E7C046FFFFFF7D41024200A5
:108F0000C30F490A0020120E7E2A03DD9D2A02DDCE
:108F1000094A98187047802000040143952A07DC0D
:108F20009620821AD1404842002BF3D10800F1E785
:108F3000963A9140F7E7C046FFFFFF7F1C210123CF
:108F40001B04984201D3000C10391B0A984201D32C
:108F5000000A08391B09984201D30009043902A20A
:108F6000105C40187047C046040302020101010171
:108F70000000000000000000F7B500250468009123
:108F8000C1680193019E01232E411E420AD003278E
:108F90006E00009BB740B340BC431C431300B3407A
:108FA000B94319430135102DECD10460C160F7BD00
:108FB000F7B50192012916D1416819430024012611
:108FC0000327416081681D002541354206D03A00E3
:108FD0006500AA409143019AAA4011430134102C24
:108FE000F1D18160F7BD41689943E7E7F7B5002506
:108FF0000F27046A436A0191160001212E410E4297
:1090000006D03900AE00B1408C430199B1400C4309
:109010000135082DF0D100250F272E00110008364C
:1090200031410E0001210E4206D03900AE00B140A0
:109030008B430199B1400B430135082DEDD10462FA
:109040004362F7BD0C4B03221B6810B5CB401340A5
:109050000A4A1268012B05D0022B0BD0002B08D036
:1090600001F07EF81006000F00F03AFB044B1B687D
:10907000584310BD0348FCE74C1002400C1002405E
:10908000080000200024F40000B506280BD801F0E9
:10909000ABF8041015190B1B1D0080230C4A5B0450
:1090A00011680B43136000BD094A802311685B00FF
:1090B000F7E78023064A5B021168F2E7054A0123BD
:1090C0001168EEE7024AFAE7034AEEE7024AF6E7DA
:1090D00000100240081002405010024000B506285F
:1090E0000AD801F081F8040E12170A191B000C4A65
:1090F0000C4913680B40136000BD094A13680A4904
:10910000F8E7074A09491368F4E7094A0121136897
:109110008B43F0E7024AF9E7064AEFE7054AF5E72D
:1091200000100240FFFFFFFEFFFEFFFFFFFFFEFFFC
:10913000081002405010024000B506280AD80C4B17
:10914000196801F051F804080A0C0E1012001022E0
:109150000A431A6000BD0822FAE74022F8E7042219
:10916000F6E72022F4E70222F2E70122F0E7C04608
:109170001810024000B506280AD80C4B196801F0F7
:1091800033F804080A0C0E10120010220A431A6069
:1091900000BD0822FAE74022F8E70422F6E7202281
:1091A000F4E70222F2E70122F0E7C0461010024085
:1091B00000B506280AD80C4B1A6801F015F8040807
:1091C0000A0C0E10120010218A431A6000BD0821FB
:1091D000FAE74021F8E70421F6E72021F4E702212D
:1091E000F2E70121F0E7C0461010024010B5062852
:1091F0001DD8104B00F0F8FF04080B0E11141700D7
:109200001868C006C00F10BD18680007FAE7186894
:109210004006F7E718684007F4E718688006F1E7AA
:1092200018688007EEE7186801231840EBE700F0A4
:1092300097FFC04614100240002300B5062809D845
:1092400000F0D2FF040A120E161A1C000C4B1B6809
:109250009B01DB0F180000BD094B1B689B03F8E75F
:10926000074B1B685B07F4E7064B1B689B07F0E79F
:10927000034B1B689B05ECE7034BFAE7024BF4E753
:1092800000100240081002405010024010B50400C7
:109290002000FFF7D1FF0028FAD010BD8023034A39
:1092A000DB0411680B4313607047C0464C1002404A
:1092B000024A034913680B40136070474C10024088
:1092C000FFFFFFFB00B5042811D800F08DFF030954
:1092D0001011170003230C4A11680B43136006E0BA
:1092E000032309490A689A43013B13430B6000BDFD
:1092F000032305490A689A43023BF6E70321024A21
:1093000013688B43EAE7C0460C100240034A044945
:10931000136880040B401843106070470C10024023
:10932000FFFFC3FF034A0449136880050B4018433D
:10933000106070470C100240FFFF3FFF034A0449D2
:10934000136800040B401843106070470C10024073
:10935000FFFFFEFF034A0449136800020B40184355
:10936000106070470C100240FFF8FFFF034A0449E9
:109370001368C0020B401843106070470C10024085
:10938000FFC7FFFFF021034A000113688B43184316
:10939000106070470C100240034A044913684003F0
:1093A0000B4018431060704704100240FF1FFFFF7E
:1093B000044B05491A6880040A401A601A68104371
:1093C000186070474C100240FFFFF3FF044B054943
:1093D0001A6880020A401A601A68104318607047C1
:1093E0004C100240FFF3FFFF0321044B1A688A432D
:1093F0001A601A6802431A607047C0464C10024057
:109400000C21044B80001A688A431A601A681043C2
:10941000186070474C100240134B10B598421BD097
:109420000AD8124B984219D0114B984218D0114AC1
:109430000223904207D010BD0F4B984212D00F4B21
:109440009842F8D100230320984099400C4C2268A0
:1094500082430A432260EEE71023F4E70A23F2E78F
:109460000C23F0E71223EEE70078004000480040AC
:109470000054004000440040007C0040003801409F
:109480004C100240094B10B5984205D10A21084BF7
:109490001868FFF7D7FD10BD064B984202D1002196
:1094A000054BF5E70221024BF2E7C04600480040B9
:1094B000040000200038014000000020C023A0224A
:1094C0001B06C018074B52011B68904206D8064A7B
:1094D0005B0510685B0F00D040007047034A9B0497
:1094E0001068F7E70C100240040000200000002084
:1094F000074A03001068074A0C2110B5934203D0B5
:10950000054A934202D11021FFF79CFD10BDC046D1
:10951000040000200054004000780040034B9842B3
:1095200002D1034B18687047024BFBE70030014043
:10953000000000200400002070B505790400012D12
:1095400040D12800FFF7A0FD2800FFF79FFEE0793B
:10955000FFF718FF207AFFF7FDFE607AFFF706FF9E
:109560001B4800F04FF8A07900F024FE0020FFF720
:10957000B5FD802317499B040A6815001D401A4257
:10958000FAD100F0F1FD607900F0FEFD2078FFF7E0
:10959000BDFE6088FFF7C6FE2079FFF7CFFE2800EA
:1095A000FFF772FD2800FFF771FE2800FFF78AFE23
:1095B000094BE2681A60094B22691A60084B62691C
:1095C0001A6070BD0320FFF75FFD0320BDE7C046B2
:1095D0001C070000001002400800002004000020CA
:1095E0000000002003680B430360704703688B434F
:1095F00003607047036819430160704703688B4339
:1096000003607047054B4209D2181F2318401E3BC8
:10961000834011680B4313607047C046001002403E
:109620001F21430908401E398140034A9B181A68CC
:109630008A431A607047C04600100240064A430938
:109640009B181F2210401E3A82401968114319606E
:1096500019689143196070470010024010B5FFF778
:10966000D1FF10BD10B5FFF7DBFF10BD034A044961
:10967000136800060B400343136070470C10024050
:10968000FFFFFFF0012802D0052807D07047802394
:10969000054ADB0211680B431360F7E78023034A96
:1096A000DB001168F7E7C04600100240501002408E
:1096B000012802D0052806D07047054A05491368DD
:1096C0000B401360F8E7044A04491368F8E7C04602
:1096D00000100240FFFFFBFF50100240FFFBFFFFA6
:1096E00001231A00072804D90B2804D8073883401F
:1096F0009AB2100070470638F9E7C3680B43C3609D
:109700007047C3688B43C36070470269C368002019
:1097100013400B405A1E934180228A424041184018
:109720007047036919400800431E9841C0B2704752
:10973000C94301617047000030B50468034D1A4306
:109740002C400A432243026030BDC0468FFCFFFF1D
:109750000368054A1340C022036003689200114069
:10976000194301607047C046FFFCFFFF8023026879
:10977000134303607047802203689343036070477C
:10978000602203681140934303600368194301603A
:1097900070471022036893430360704710230268E8
:1097A0001343036070470823026813430360704744
:1097B00008220368934303607047042203689343BD
:1097C000036070470423026813430360704702225A
:1097D00003689343036070470223026813430360E6
:1097E0007047012302681343036070470122036836
:1097F000934303607047FE224368D201114019432E
:1098000041607047FE224368D20111408B434360A0
:109810007047802342681343436070478022436847
:1098200093434360704770224368934343604368A7
:109830000B4343607047082243689343436070477B
:10984000082342681343436070470423426813436C
:109850004360704704224368934343607047012389
:109860004268134343607047012243689343436057
:1098700070478162704701637047C162704703009F
:1098800000B506290AD8080000F0AEFC0408090853
:109890000D081200802299690A439A6100BD802256
:1098A00099691202F8E78022D9690A43DA61F5E77B
:1098B0008022D9691202F8E7030000B506290AD808
:1098C000080000F091FC040809080D08120080212E
:1098D0009A698A439A6100BD9A6906490A40F9E784
:1098E0008021DA698A43DA61F5E7DA6901490A40D9
:1098F000F9E7C046FF7FFFFF030000B506290AD83D
:10990000080000F071FC040809080D081200042288
:1099100099690A439A6100BD80229969D200F8E7EB
:109920000422D9690A43DA61F5E78022D969D200B5
:10993000F8E70000030000B506290AD8080000F087
:1099400053FC040809080D08120004219A698A438F
:109950009A6100BD9A6906490A40F9E70421DA696B
:109960008A43DA61F5E7DA6901490A40F9E7C04656
:10997000FFFBFFFF826903000320824310B59A6159
:109980009A699A6170229C6994439C61072908D85E
:10999000080000F029FC04070B0E1114171A9A692D
:1099A0009A6110BD102299690A43F9E7202299694A
:1099B000FAE730229969F7E740229969F4E75022E3
:1099C0009969F1E760229969EEE79969ECE700008F
:1099D00003008269174800B502409A619A691648E7
:1099E0009A619A6902409A61072908D8080000F034
:1099F000FBFB04070C1013171A1D9A699A6100BD2E
:109A00008022996952010A43F8E7802299699201FC
:109A1000F9E7C0229969FAE780229969D201F2E751
:109A2000A0229969FAE7C0229969F7E7E0229969CB
:109A3000F4E7C046FFFCFFFFFF8FFFFFC269030092
:109A40000320824310B5DA61DA69DA617022DC69D9
:109A50009443DC61072908D8080000F0C5FB04071F
:109A60000B0E1114171ADA69DA6110BD1022D969C8
:109A70000A43F9E72022D969FAE73022D969F7E7E2
:109A80004022D969F4E75022D969F1E76022D96907
:109A9000EEE7D969ECE700000300C269174800B59A
:109AA0000240DA61DA691648DA61DA690240DA619D
:109AB000072908D8080000F097FB04070C101317BB
:109AC0001A1DDA69DA6100BD8022D96952010A43A0
:109AD000F8E78022D9699201F9E7C022D969FAE74B
:109AE0008022D969D201F2E7A022D969FAE7C0221F
:109AF000D969F7E7E022D969F4E7C046FFFCFFFF28
:109B0000FF8FFFFF030010B508001100062808D8DA
:109B100000F06AFB040708070C0710001800FFF7A5
:109B200029FF10BD1800FFF753FFFAE71800FFF7F1
:109B300085FFF6E71800FFF7AFFFF2E7030000B577
:109B400006290AD8080000F04FFB040809080D0890
:109B50001200082299690A439A6100BD802299691E
:109B60001201F8E70822D9690A43DA61F5E7802291
:109B7000D9691201F8E70000030000B506290AD8E8
:109B8000080000F031FB040809080D081200082144
:109B90009A698A439A6100BD9A6906490A40F9E7C1
:109BA0000821DA698A43DA61F5E7DA6901490A408E
:109BB000F9E7C046FFF7FFFF030000B506290AD802
:109BC00008001A6A00F010FB040F08110A130D00B8
:109BD00002218A431A6200BD2021FAE705490A40A2
:109BE000F8E70549FBE70821F3E78021F1E703499E
:109BF000F5E7C046FFFDFFFFFFDFFFFFFFF7FFFFB9
:109C0000030000B506290AD80800196A00F0ECFA2A
:109C1000041008120A140D0002220A431A6200BD41
:109C20002022FAE780229200F7E780229201F4E7EF
:109C30000822F2E78022F0E780221201EDE703001C
:109C400000B506290AD80800196A00F0CDFA0410F8
:109C500008120A140D0001220A431A6200BD1022E4
:109C6000FAE780225200F7E780225201F4E704224B
:109C7000F2E74022F0E78022D200EDE7030000B5D2
:109C800006290AD808001A6A00F0AEFA040F081173
:109C90000A130D0001218A431A6200BD1021FAE760
:109CA00005490A40F8E70549FBE70421F3E74021AD
:109CB000F1E70349F5E7C046FFFEFFFFFFEFFFFFB7
:109CC000FFFBFFFF030000B506290BD80800802228
:109CD000596800F089FA04080A0C0E1012005200AC
:109CE0000A435A6000BD9200FAE7D200F8E7120179
:109CF000F6E75201F4E79201F2E7D201F0E7000043
:109D0000030000B506290AD808005A6800F06CFA6A
:109D100004080A0C0E10120007490A405A6000BDE0
:109D20000649FAE70649F8E70649F6E70649F4E77F
:109D30000649F2E70649F0E7FFFEFFFFFFFDFFFFE0
:109D4000FFFBFFFFFFF7FFFFFFEFFFFFFFDFFFFF5F
:109D5000FFBFFFFF030000B5062907D8080000F089
:109D600043FA0405060508050A005A6300BD9A6314
:109D7000FCE7DA63FAE71A64F8E78023426C1B0217
:109D80001343436470470000436C024A134043642A
:109D90007047C046FF7FFFFF8023426CDB01134307
:109DA00043647047436C024A134043647047C046A3
:109DB000FFBFFFFF8023426C9B0113434364704746
:109DC000436C024A134043647047C046FFDFFFFF05
:109DD0008023426C5B01134343647047436C024A27
:109DE000134043647047C046FFEFFFFF8023426C7F
:109DF0001B01134343647047436C024A134043649E
:109E00007047C046FFF7FFFF8023426CDB0013431F
:109E100043647047436C024A134043647047C04632
:109E2000FFFBFFFF436C0B434364704710B5FFF724
:109E3000F9FF10BD43690B4343617047406A7047A7
:109E400041627047030000B503290CD8080000F0F8
:109E5000CBF9020B121BF020996912018143996121
:109E600099690A439A6100BD99690B481203014040
:109E700099619969F5E7F020D96912018143D961A7
:109E8000D9690A43DA61EEE7D96903481203014050
:109E9000D961D969F5E7C046FF0FFFFF030000B5A0
:109EA00003290CD8080000F09FF9020B121B0C20AC
:109EB000996992008143996199690A439A6100BD49
:109EC00099690B489202014099619969F5E70C2064
:109ED000D96992008143D961D9690A43DA61EEE711
:109EE000D969034892020140D961D969F5E7C046B2
:109EF000FFF3FFFF30B50300022403200D000240F2
:109F0000A543012D03D1541E012C00D84240032942
:109F10000BD8080000F068F9020A111903209969AA
:109F20008143996199690A439A6130BD99690A48E8
:109F30001202014099619969F5E70320D9698143CB
:109F4000D961D9690A43DA61EFE7D9690248120297
:109F50000140D961D969F5E7FFFCFFFF01238900C2
:109F60008B40026A134303627047012289008A40D2
:109F7000036A9343036270478368044A09021340EB
:109F800083608368194381607047C046FFF0FFFF1C
:109F90008368044A0903134083608368194381601E
:109FA0007047C046FFCFFFFF002905D0802382689D
:109FB0001B021343836070478368014A1340F9E72B
:109FC000FF7FFFFF07228368934383608368194301
:109FD000816070477022836893438360836819436C
:109FE00081607047002905D080238268DB0113431C
:109FF000836070478368014A1340F9E7FFBFFFFFA2
:10A00000FEE7704710B5164B164A17498B4218D316
:10A010000021164A934217D38023154A9B001168EA
:10A02000144C0B431360144B9C420FD3134C144B32
:10A030009C420ED3FDF7C4FE124C134B9C420BD333
:10A0400010BD01CA01C3E1E702C3E3E708CC9847AA
:10A05000E9E708CC9847EAE708CC9847EDE7C0461F
:10A0600000000020E4A300080C00002018000020DD
:10A0700014ED00E0E4A30008E4A30008E4A3000852
:10A08000E4A30008E4A30008E4A30008024B0002D4
:10A09000000A18607047C04614E000E0024B1868E0
:10A0A0000002000A7047C04614E000E0024B186846
:10A0B0000002000A7047C04618E000E00421034A8D
:10A0C000084013688B4303431360704710E000E0BF
:10A0D0000B0010B50100180000F090F8441E042099
:10A0E000FFF7ECFF2402024B240A01201C6010BD84
:10A0F00014E000E00223024A11680B43136070472A
:10A1000010E000E00221024A13688B43136070479D
:10A1100010E000E00123024A11680B43136070470E
:10A1200010E000E00121024A13688B43136070477E
:10A1300010E000E0024B1868C003C00F7047C04633
:10A1400010E000E00022014B1A60704718E000E0C8
:10A15000024B18680002000A7047C0461CE000E08D
:10A16000FEE710B5FFF7FCFF0223024A11680B431C
:10A1700013607047002002400221024A13688B439B
:10A1800013607047002002400121034A13688B438B
:10A19000034313607047C04600200240024B034A4D
:10A1A0001A60034A1A60704714200240C8D9EAFBBB
:10A1B000272625240A4A0B4B11680B40012808D09A
:10A1C000022809D0002802D1802109010B43136025
:10A1D000704780214901F9E7C0235B01F6E7C046DB
:10A1E00000700040FFE7FFFF02B4714649084900D4
:10A1F000095C49008E4402BC7047C04600224308F7
:10A200008B4274D303098B425FD3030A8B4244D33E
:10A21000030B8B4228D3030C8B420DD3FF22090280
:10A2200012BA030C8B4202D31212090265D0030B3F
:10A230008B4219D300E0090AC30B8B4201D3CB0335
:10A24000C01A5241830B8B4201D38B03C01A524177
:10A25000430B8B4201D34B03C01A5241030B8B4279
:10A2600001D30B03C01A5241C30A8B4201D3CB0264
:10A27000C01A5241830A8B4201D38B02C01A524149
:10A28000430A8B4201D34B02C01A5241030A8B424C
:10A2900001D30B02C01A5241CDD2C3098B4201D364
:10A2A000CB01C01A524183098B4201D38B01C01AE2
:10A2B000524143098B4201D34B01C01A5241030959
:10A2C0008B4201D30B01C01A5241C3088B4201D308
:10A2D000CB00C01A524183088B4201D38B00C01AB5
:10A2E000524143088B4201D34B00C01A5241411ADC
:10A2F00000D20146524110467047FFE701B50020E9
:10A3000000F006F802BDC0460029F7D076E7704796
:10A310007047C046A4850008D0840008BA840008AD
:10A3200036850008BA8400086A850008BA840008E7
:10A3300036850008D0840008D08400086A850008AB
:10A3400036850008A6840008A6840008A6840008B4
:10A3500074850008D0840008D0840008BA840008FE
:10A3600012860008BA8400086A850008BA840008CA
:10A3700012860008D0840008D08400086A8500088E
:10A3800012860008A6840008A6840008A684000897
:10A39000000000000000020A0000000080841E008F
:10A3A00080841E0080841E00000000000000000069
:10A3B00000000100000000000024F4000024F4006C
:10A3C0000024F40000000000010001000001000072
:10A3D000000000000048E8010048E8010048E801EA
:04A3E0000000000079
:0CA3E40068FF1F0068FF1F0068FF1F00DB
:040000050800A0054A
:00000001FF
